:4000000080673030303030307e3030307e3030307e3030307e3030307e3030307d076b7e7d06f57e7e3030307d06f87e7d06787e7d05fb7e7d057e7e7e3030307d067b7e8d
:400040007e3030307d05fe7e7e3030307d05817e7e3030307d04587e7d04577e7e3030307d045a7e7e303030711062fa0062e38770ef50202850402850602841fefb50807b
:400080004e55f80055f900711062e00270ef62e338627105627505627905627d0562d10750004e62d30762d00062d50062d40071c07c03f562d000500357f30828531d185f
:4000c000750900284b511d800475090062e300082860d574a04b187509000828531d187509000828a01c531c1875090008283f1d471dffb0065dd57460d5187a1cbfeb8f72
:40010000c9187509000828531c50003f1d471dffb0085dd57460d550007a1cbfef188faa18711070ef62e000711062e00043e78070ef62e2007c07648fff50107f3030300c
:40014000303030303030303030303030303030303030303030303030303030303030303030303030303030303030303030303030303030303030303030303030303030307f
:40018000303030303030303030303030303030303030303030303030303030303030303080908100826183f02300210022002700250026002b0029002a0084908500866182
:4001c00087f02f002d002e003b0039003a003f003d003e00889089008a618bf03300310032004300410042004700450046008c908d008e618ff03700350036004b00490014
:400200004a004f004d004e0071fe72217320700075fe76217720740079fe7a217b2078007dfe7e217f207c005b0059005a005300510052005704550056006094660063054a
:400240006500e600e700d600b000b100b200b333b433b500b600b855b900ba10bb33bc33bd00be00c000c100c220c333c433c500c600c855c900ca30cb33cc33cd01ce00ef
:400280006c006d006e006f00ff202121452240240125152640282129352a402c212d552e40380139153a403c213d353e403021316532404001411542404421453546403414
:4002c0002135753640480149154a404c214d354e40581d59015a4450005100520054205530560061006900600062006733683363006600d100d300d000d200e1bfe200df2f
:4003000019de01dd00e700ff71106200016201fe70ef6203fe620201711062020062030070ef62010071106204a06205ff70ef6207ff620600711062060062070070ef625b
:40034000050071106208056209fe70ef620bfa620a007110620a04620b0470ef6209047110620c00620d0070ef620f00620e007110620e00620f0070ef620d0071106210fc
:400380000062110070ef621300621200711062120062130070ef621100711062140062150070ef621700621600711062160062170070ef621500711062180062190070ef6b
:4003c000621b00621a007110621a00621b0070ef6219007110621c00621d0070ef621f00621e007110621e00621f0070ef621d0070ef7f076c7c03fc7c03087f1070ef50e1
:400400000067500157a07c0417500167500257897c041770ef207f380210084f56fc00d00456fc01182070ef62e30010082839ffa01f4f48fc01a003711054fd182075090b
:40044000001008284f59fd610018207509008fd738fc703f71c07f7e7e7f08105dd30849d610a00649d720b0eb49d708b07449d704b0be49d720b0dc470004b0147a02c017
:40048000393c0200a00380062e000480042600fb2e0110510360d358045dd8703f71805400703f71007604470004b01662d7101860d32018703f71c07e2e01202601ef76ca
:4004c000022600fb62d7001860d32018703f71c07e43d61062d7101860d32018703f71c07e51012130a0072e014041d6ef5dd870f96d3111b04e2e0180dfd72601fb501477
:4005000008510560d35806703f71805200703f710060d87a07c005760680092e01022601fe76071860d71860d32018703f71c07e49d702b0065004088fc82e01012e010446
:4005400026017f26017f62d7001860d32018703f71c07e2e014026017f41d6ef49d701a00641ddfe8efa1860d32018703f71c07efffefcf8f0e0c0020408102040807608b1
:400580007e4137fe438e20438f1071014070fe085d345d367873d0037608530a510853096235ff433701550800418fef418edf510b210fffc2082209a00b181101530955f9
:4005c0000aff80021868096e0a68096e0a182e0b10470cffa0177a0cb013414bfe4137fe438e20438f1041dff741e1df7efffefcf8f0e0c002040810204080760d7e413376
:40060000fe438a20438b1071014070fe085d305d327873d003760d530f510d530e6231ff433301550d00418bef418adf5110210fffc208220ea00b181101530e550fff80d8
:400640000218680e6e0f680e6e0f182e10104711ffa0177a11b0134143fe4133fe438a20438b1041dffd41e1ef7efffefcf8f0e0c00204081020408076127e412ffe438691
:400680002043871071014070fe085d2c5d2e7873d0037612531451125313622dff432f015512004187ef4186df5115210fffc2082213a00b18110153135514ff8002186890
:4006c000136e1468136e14182e15104716ffa0177a16b013413bfe412ffe43862043871041e17f41e1f77efffefcf8f0e0c00204081020408076177e4123fe43822043831d
:400700001071014070fe085d205d227873d00376175319511753186221ff4323015517004183ef4182df511a210fffc2082218a00b18110153185519ff80021868186e1965
:4007400068186e19182e1a10471bffa0177a1bb0134127fe4123fe43822043831041e1fb41e1fe7e4308018fff8fff7eff003030303030303030303030303030303030300f
:400780003030303030303030303030303030303030303030303030303030303030303030303030303030303030303030303030303030303030303030303030303030303039
:4007c00030303030303030303030303030303030303030303030303030303030303030303030303030303030303030303030303030303030303030303030303030303030f9
:4008000030303030303030303030303030303030303030303030303030303030303030303030303030303030303030303030303030303030303030303030303030303030b8
:400840003030303030303030303030303030303030303030303030303030303030303030303030303030303030303030303030303030303030303030303030303030303078
:020000040010ea
:020000040020da
:02000000fef20e
:00000001ff
