:4000000080673030303030307e3030307e3030307e3030307e3030307e3030307d09d57e7d06c87e7e3030307d03c17e7e3030307e3030307e3030307e3030307e303030be
:400040007e3030307e3030307e3030307e3030307e3030307d049a7e7e3030307e3030307d05157e7e303030711062fa0062e38770ef50202850402850602841fefb508028
:400080004e55f80055f900711062e00270ef62e338627105627505627905627d0562d10750004e62d30762d00062d50062d40071c07c035f62d0005003575d0828531e188a
:4000c000750900284b511e800475090062e300082860d574a04b187509000828531e187509000828a01c531d1875090008283f1e471effb0065dd57460d5187a1dbfeb8f6c
:40010000c9187509000828531d50003f1e471effb0085dd57460d550007a1dbfef188faa18711070ef62e000711062e00043e78070ef62e2007c07d98fff50107f30303093
:40014000303030303030303030303030303030303030303030303030303030303030303030303030303030303030303030303030303030303030303030303030303030307f
:40018000303030303030303030303030303030303030303030303030303030303030303055500d0a00444f574e0d0a003a0049324320736c61766520616464723a008090fc
:4001c0008100826083f023002100220171fe7221732070002b0029002a005300510052005704550056006094660063056500e600e742d600b000b100b200b333b433b5049e
:40020000b600b855b900ba10bb33bc33bd00be00c000c100c220c333c433c500c600c855c900ca30cb33cc33cd01ce006c006d006e006f00ff203121152240281d29012a95
:400240008450005117524054205537564061006900600062006733683363006600d100d300d000d200e1bfe200df19de01dd00e748ff71106200006201ff70ef6203ff627c
:400280000200711062020062030070ef62010071106204a16205fe70ef6207fe620601711062060062070070ef62050071106208076209fc70ef620bf8620a007110620a86
:4002c00004620b0470ef6209047110620c00620d0070ef620f00620e007110620e00620f0070ef620d00711062100062110070ef621300621200711062120062130070ef76
:40030000621100711062140062150070ef621700621600711062160062170070ef621500711062180062190070ef621b00621a007110621a00621b0070ef6219007110623f
:400340001c00621d0070ef621f00621e007110621e00621f0070ef621d0070ef7f0bf67c03667c02727f1070ef500067500157be7c0381500167500257357c038170ef204e
:400380007f380210084f56fc00d00456fc01182070ef62e30010082839ffa01f4f48fc01a003711054fd18207509001008284f59fd610018207509008fd738fc703f71c05c
:4003c0007f7e43e1047f41e1fb7f71102101a00743281070ef7f4128ef70ef7f2901602b7f412bfe7f60297f5d2b7f30313233343536373839414243444546086767676772
:40040000210fffe7900f18210fffe090087f4b9fea5b9fe77f492b10affc60297f70bf60d35200a0069fee758ff8703f71c07f70bf62d3074f52fba01a7bfb52fc59fd60e1
:40044000d35200492b10affc60294f62d30777fd8fe4703f71c07f4f3dfa00b0063dfb00a01d1052fc59fd28492b10affc60292007fd010ffc0017fb011ffa008fdb7f08bc
:400480001028a00b9f8f201875dff5748ff238fe7f500d9f80500a9f7c7f7e21034f085d7321fc2b00607318703f71c07f21fc4f085d712107480004b00e4170fe2b006087
:4004c0007118703f71c07f2700182b00607143700118703f71c07f4173fc7f7f088008085ddd21fe60dd43de01187f085ddd21fe60dd187f62d00026007f62d00026017f35
:4005000043d6027f43d6017f41defe7f41d6fe7f41d6fd7f7f08105dd30849d610a00649d720b0eb49d708b07449d704b0be49d720b0dc470004b0147a02c0393c0200a03a
:400540000380062e000480042600fb2e0110510360d358045dd8703f71805400703f71007604470004b01662d7101860d32018703f71c07e2e01202601ef76022600fb629b
:40058000d7001860d32018703f71c07e43d61062d7101860d32018703f71c07e51012130a0072e014041d6ef5dd870f96d3111b04e2e0180dfd72601fb501408510560d3aa
:4005c0005806703f71805200703f710060d87a07c005760680092e01022601fe76071860d71860d32018703f71c07e49d702b0065004088fc82e01012e010426017f26014a
:400600007f62d7001860d32018703f71c07e2e014026017f41d6ef49d701a00641ddfe8efa1860d32018703f71c07e104f79085dde0841defe62d0002600fb52fc53035231
:40064000fd530452fb53023901a008c00626018f80092e000426018f8001182101a00443de011820703f71c07f62d000104f79085dde0841defe52fc530552fd530652fb90
:4006800053077a072601f0182101a00443de011820703f71c07f7f62d00051017f62d0002601f87f62d00026018f7f2103570079c00564648ffa4f085d6021fc2b006060d2
:4006c00018703f71c07f7f7f7a0dc0027e3c0e00b012085de5530b5de4530a18550e01550dff7e438220438310085de5120b530b5de41a0a3940b00578550bff11205f098e
:400700000b5308550c01183c0f00b00e550e00550d004183ef4182df7e7a0fa00e550e00550d004183ef4182df7e711041e73f43e78070ef41e1fe7e900d43822043831082
:400740006221ff4323017f4f2103085d8321fc2b00608318703f71c07f41e1fe4183fc4123fe7f62d0004183ef4182df550e00550d00530f5d22b004622201711041e73f05
:4007800043e74070ef62dbfe43e1017f711041e73f43e78070ef41e1fe4382204383107f62d000510c7f62d000550c00580851093c0c00bff57f62d000550c0051097f62a2
:4007c000d000580851097f62d00051097f62d000510c550c007f60227f710143e020107c04db7c05047c04df7c06c6201050037c049b201050037c0738201050007c03dc72
:40080000204308011050010850ae5c187c047f201050117c03fb7c0491204108fe107c06972062d0005340474040a016107c06a42010500808500008502f087c062b38fddd
:400840002062d000474004a016107c069d2010500808500008501f087c066938fd2062d000553f00809162d000513f08909438ff62d000511d08511e62d000533d18533e99
:4008800062d000513f62d000531d551e00651d6b1e061d270e1e00511e60d562d000513d62d0003f1d62d000513e62d0003f1d1062d000513f7c0415201050010850ac5c57
:4008c000187c047f2050000850060862d000513d08513e085000085037087c0a1d38fa1062d000511e08511d5c187c041d7c04912062d000763f62d0003c3f04cf698f1e0a
:400900008fff104f1052fc7c06ab201050007c076320107c07a062d000203900aff5107c07a662d000531d5a1e20207f71c0085dd0085dd3085dd4085dd50862d000511e8b
:4009400008511d08511c08511b08511a085119085118085117085116085115085114085113085112085111085110085d0862d000531e471e04a0124308011050010850a589
:400980005c187c047f2080104108fe1050010850a05c187c047f2062d00018531018531118531218531318531418531518531618531718531818531918531a18531b18533e
:4009c0001c18531d18531e1860d51860d41860d31860d0187e7d092c7e104f7c09e420703f71c07f5dd00862d00050005311531255101066fc6cfb6b116b1251111bfa5112
:400a0000121bf9c009531252fa1c1177fc7a10bfe3511154fa511254f91860d07f104f380952fa540352f954023df900b02f3dfa00b02a62d00052fc531d52fb60d5503027
:400a40003f1d52fc0101531d52fb090060d550003f1d52fc531d52fb531e819752fa110052f931801980d0293df700b0243df80ab01f56060162d000520373531d52027300
:400a8000531e511d01015403511e09005402800456060052fc540152fb540062d00052f70852f8085202085203087c09d938fe18531d18531e511d5408511e5407500913d9
:400ac0000852073180531250801a12c02862d0005201531d5200531e511d01015401511e0900540052080130531c511e60d5511c3f1d802662d0005201531d5200531e513c
:400b00001d01015401511e0900540052080157531c511e60d5511c3f1d52f70852f80852020852030862d0007c09d918540318540238fe3d0200bf643d0300bf5f3d0600e5
:400b4000a02062d0005201531d5200531e511d01015401511e09005400511e60d5502d3f1d62d0005201531d5200531e511d01ff5401511e09ff5400511e60d550003f1d59
:400b800052fc540552fb5404805462d0005205531d520460d43e1d54065205531d5204531e511d01015405511e090054045201531b520060d43e1b531c511e60d5511c3f57
:400bc0001d5201531d5200531e511d01ff5401511e09ff5400511e60d552063f1d5205130152041b00cfa462d00052fc531d52fb531e38f7207f001f017800200021ff00c9
:400c000030303030303030303030303030303030303030303030303030303030303030303030303030303030303030303030303030303030303030303030303030303030b4
:400c40003030303030303030303030303030303030303030303030303030303030303030303030303030303030303030303030303030303030303030303030303030303074
:400c80003030303030303030303030303030303030303030303030303030303030303030303030303030303030303030303030303030303030303030303030303030303034
:400cc00030303030303030303030303030303030303030303030303030303030303030303030303030303030303030303030303030303030303030303030303030303030f4
:020000040010ea
:020000040020da
:020000008f551a
:00000001ff
