:4000000080673030303030307e3030307e3030307e3030307e3030307e3030307d0af17e7d06ca7e7e3030307d03c37e7e3030307e3030307e3030307e3030307e3030309d
:400040007e3030307e3030307e3030307e3030307e3030307d049c7e7e3030307e3030307d05177e7e303030711062fa0062e38770ef50202850402850602841fefb508024
:400080004e55f80055f900711062e00270ef62e338627105627505627905627d0562d10750004e62d30762d00062d50062d40071c07c036162d0005003575f0828531e1886
:4000c000750900284b511e800475090062e300082860d574a04b187509000828531e187509000828a01c531d1875090008283f1e471effb0065dd57460d5187a1dbfeb8f6c
:40010000c9187509000828531d50003f1e471effb0085dd57460d550007a1dbfef188faa18711070ef62e000711062e00043e78070ef62e2007c09128fff50107f30303058
:40014000303030303030303030303030303030303030303030303030303030303030303030303030303030303030303030303030303030303030303030303030303030307f
:40018000303030303030303030303030303030303030303030303030303030303030303055500d0a00444f574e0d0a003a0049324320736c61766520616464723a30780064
:4001c00084908500866087fc23002100220175fe7621772074002b0029002a0053005100520057045500560060b0660063056500e602e742d600b000b100b200b333b433fd
:40020000b500b610b855b900ba10bb33bc33bd00be00c000c100c220c333c433c500c600c855c900ca30cb33cc33cd01ce006c006d006e006f00ff203121152240281d29fb
:40024000012a8750005117524054205537564061006900600062006733683363006600d100d300d000d200e1bfe200df19de01dd00e748ff71106200006201ff70ef6203af
:40028000ff620200711062020062030070ef62010071106204a06205ff70ef6207ff620600711062060062070070ef620500711062080f6209f470ef620bf0620a08711091
:4002c000620a04620b0470ef6209047110620c00620d0070ef620f00620e007110620e00620f0070ef620d00711062100062110070ef621300621200711062120062130069
:4003000070ef621100711062140062150070ef621700621600711062160062170070ef621500711062180062190070ef621b00621a007110621a00621b0070ef6219007152
:4003400010621c00621d0070ef621f00621e007110621e00621f0070ef621d0070ef7f0b7c7c03687c02747f1070ef500067500157c07c0383500167500257377c03837059
:40038000ef207f380210084f56fc00d00456fc01182070ef62e30010082839ffa01f4f48fc01a003711054fd18207509001008284f59fd610018207509008fd738fc703f7e
:4003c00071c07f7e43e1047f41e1fb7f71102101a00743281070ef7f4128ef70ef7f2901602b7f412bfe7f60297f5d2b7f303132333435363738394142434445460867670f
:400400006767210fffe7900f18210fffe090087f4b9fea5b9fe77f492b10affc60297f70bf60d35200a0069fee758ff8703f71c07f70bf62d3074f52fba01a7bfb52fc5970
:40044000fd60d35200492b10affc60294f62d30777fd8fe4703f71c07f4f3dfa00b0063dfb00a01d1052fc59fd28492b10affc60292007fd010ffc0017fb011ffa008fdbe6
:400480007f081028a00b9f8f201875dff5748ff238fe7f500d9f80500a9f7c7f7e21034f085d7721fc2b00607718703f71c07f21fc4f085d752107480004b00e4174fe2b50
:4004c00000607518703f71c07f2700182b00607543740118703f71c07f4177fc7f7f088008085ddd21fe60dd43de01187f085ddd21fe60dd187f62d00026007f62d0002645
:40050000017f43d6027f43d6017f41defe7f41d6fe7f41d6fd7f7f08105dd30849d610a00649d720b0eb49d708b07449d704b0be49d720b0dc470004b0147a02c0393c025a
:4005400000a00380062e000480042600fb2e0110510360d358045dd8703f71805400703f71007604470004b01662d7101860d32018703f71c07e2e01202601ef7602260058
:40058000fb62d7001860d32018703f71c07e43d61062d7101860d32018703f71c07e51012130a0072e014041d6ef5dd870f96d3111b04e2e0180dfd72601fb501408510580
:4005c00060d35806703f71805200703f710060d87a07c005760680092e01022601fe76071860d71860d32018703f71c07e49d702b0065004088fc82e01012e010426017f3e
:4006000026017f62d7001860d32018703f71c07e2e014026017f41d6ef49d701a00641ddfe8efa1860d32018703f71c07e104f79085dde0841defe62d0002600fb52fc535f
:400640000352fd530452fb53023901a008c00626018f80092e000426018f8001182101a00443de011820703f71c07f62d000104f79085dde0841defe52fc530552fd530688
:4006800052fb53077a072601f0182101a00443de011820703f71c07f7f62d00051017f62d0002601f87f62d00026018f7f2103570179c00564648ffa4f085d6021f32b004d
:4006c000606018703f71c07f7f7f7a0dc0027e3c0e00b012085de5530b5de4530a18550e01550dff7e438620438710085de5120b530b5de41a0a3940b00578550bff5f09f7
:400700000b5308550c01183c0f00b00e550e00550d004187ef4186df7e7a0fa00e550e00550d004187ef4186df7e711041e73f43e78070ef41e1fe7e900d4386204387106a
:400740006221ff4323017f4f2103085d8721fc2b00608718703f71c07f41e1fe4187fc4123fe7f62d0004187ef4186df550e00550d00530f5d22b004622201711041e73ff1
:4007800043e74070ef62dbfe43e1017f711041e73f43e78070ef41e1fe4386204387107f62d000510c7f62d000550c00580851093c0c00bff57f62d000550c0051097f629a
:4007c000d000580851097f62d00051097f62d000510c550c007f60227f104f3801560000801d500008500a0852fb0852fc0862d0007c0af51854fc1854fb38fe770050000c
:4008000013fc52fb318062d000531250801a12cfd2520062d00038ff207f104f380452fb0852fc089fb338fe62d0005403560200520311015401520219005400805162d0ee
:4008400000500008500a0852fb0852fc087c0af538fe18531d18531e061d300e1e00511d531e520103fa531b52000bf960d5511e3f1b500008500a0852fb0852fc087c0af6
:40088000f51854fc1854fb38fe7b011f000052011100520031801980dfa562d000520303fa531d52020bf960d550003f1d52fa531d52f9531e38fc207f104f62d00052fcc8
:4008c000531d52fb531e511d110154fc511e190054fb3c1e00bfe53c1d00bfe0207f104f1052fc7c06ad20500008500a089fca38fe1050007c076320107c07a062d000203e
:400900003900aff5107c07a662d000531d5a1e20207f710143e020107c04dd7c05067c04e17c06c8201050037c049d201050037c0738201050007c03de20430801105001ec
:400940000850ae5c187c0481201050117c03fd7c0493204108fe107c06992062d0005340474040a016107c06a62010500808500008502f087c062d38fd2062d00047400480
:40098000a016107c069f2010500808500008501f087c066b38fd2062d000553f00808f62d000513f089f3738ff62d000511d08511e62d000533d18533e62d000513f62d08d
:4009c00000531d551e00651d6b1e061d270e1e00511e60d562d000513d62d0003f1d62d000513e62d0003f1d62d000513f013062d000107c0417201050010850ac5c187c11
:400a000004812050000850370862d000513d08513e089e0638fc1062d000511e08511d5c187c041f7c04932062d000763f62d0003c3f04cf6b62d000551f61552062552160
:400a4000635522648f118fff71c0085dd0085dd3085dd4085dd50862d000511e08511d08511c08511b08511a0851190851180851170851160851150851140851130851120a
:400a8000085111085110085d0862d000531e471e04a0124308011050010850a55c187c04812080104108fe1050010850a05c187c04812062d0001853101853111853121876
:400ac000531318531418531518531618531718531818531918531a18531b18531c18531d18531e1860d51860d41860d31860d0187e7d0a487e104f50003dfb80c00d37fc6e
:400b0000ff77fc37fbff0dfb50c03df980c00e37faff77fa37f9ff0ff9003180087c0b43186ad00c37fcff37fbff77fc0ffb006ad00c37faff37f9ff77fa0ff90020703ff0
:400b400071c07f5dd00862d00050005311531255101066fc6cfb6b116b1251111bfa51121bf9c009531252fa1c1177fc7a10bfe3511154fa511254f91860d07f001f01781b
:400b800000200021ff003030303030303030303030303030303030303030303030303030303030303030303030303030303030303030303030303030303030303030303015
:400bc00030303030303030303030303030303030303030303030303030303030303030303030303030303030303030303030303030303030303030303030303030303030f5
:400c000030303030303030303030303030303030303030303030303030303030303030303030303030303030303030303030303030303030303030303030303030303030b4
:400c40003030303030303030303030303030303030303030303030303030303030303030303030303030303030303030303030303030303030303030303030303030303074
:400c80003030303030303030303030303030303030303030303030303030303030303030303030303030303030303030303030303030303030303030303030303030303034
:020000040010ea
:020000040020da
:02000000a45307
:00000001ff
